{
  "contractName": "CommunityRewardsDAT",
  "abi": [
    {
      "inputs": [
        {
          "internalType": "contract IERC20",
          "name": "_token",
          "type": "address"
        }
      ],
      "stateMutability": "nonpayable",
      "type": "constructor"
    },
    {
      "anonymous": false,
      "inputs": [
        {
          "indexed": true,
          "internalType": "address",
          "name": "previousOwner",
          "type": "address"
        },
        {
          "indexed": true,
          "internalType": "address",
          "name": "newOwner",
          "type": "address"
        }
      ],
      "name": "OwnershipTransferred",
      "type": "event"
    },
    {
      "inputs": [],
      "name": "owner",
      "outputs": [
        {
          "internalType": "address",
          "name": "",
          "type": "address"
        }
      ],
      "stateMutability": "view",
      "type": "function",
      "constant": true
    },
    {
      "inputs": [],
      "name": "renounceOwnership",
      "outputs": [],
      "stateMutability": "nonpayable",
      "type": "function"
    },
    {
      "inputs": [
        {
          "internalType": "address",
          "name": "",
          "type": "address"
        }
      ],
      "name": "rewardsInfoByToken",
      "outputs": [
        {
          "internalType": "address",
          "name": "rewardsToken",
          "type": "address"
        },
        {
          "internalType": "uint256",
          "name": "rewardsAmount",
          "type": "uint256"
        }
      ],
      "stateMutability": "view",
      "type": "function",
      "constant": true
    },
    {
      "inputs": [],
      "name": "token",
      "outputs": [
        {
          "internalType": "contract IERC20",
          "name": "",
          "type": "address"
        }
      ],
      "stateMutability": "view",
      "type": "function",
      "constant": true
    },
    {
      "inputs": [
        {
          "internalType": "address",
          "name": "newOwner",
          "type": "address"
        }
      ],
      "name": "transferOwnership",
      "outputs": [],
      "stateMutability": "nonpayable",
      "type": "function"
    },
    {
      "inputs": [
        {
          "internalType": "address",
          "name": "rewardsToken",
          "type": "address"
        },
        {
          "internalType": "uint256",
          "name": "rewardsAmount",
          "type": "uint256"
        }
      ],
      "name": "updateRewardsAmount",
      "outputs": [],
      "stateMutability": "nonpayable",
      "type": "function"
    },
    {
      "inputs": [
        {
          "components": [
            {
              "internalType": "address",
              "name": "token",
              "type": "address"
            },
            {
              "internalType": "uint256",
              "name": "amount",
              "type": "uint256"
            }
          ],
          "internalType": "struct CommunityRewardsDAT.ReportInfo[]",
          "name": "list",
          "type": "tuple[]"
        }
      ],
      "name": "updateRewardsList",
      "outputs": [],
      "stateMutability": "nonpayable",
      "type": "function"
    },
    {
      "inputs": [
        {
          "internalType": "address",
          "name": "rewardsToken",
          "type": "address"
        },
        {
          "internalType": "uint256",
          "name": "claimAmount",
          "type": "uint256"
        }
      ],
      "name": "claimByAdmin",
      "outputs": [],
      "stateMutability": "nonpayable",
      "type": "function"
    },
    {
      "inputs": [
        {
          "internalType": "uint256",
          "name": "claimAmount",
          "type": "uint256"
        }
      ],
      "name": "claim",
      "outputs": [],
      "stateMutability": "nonpayable",
      "type": "function"
    },
    {
      "inputs": [
        {
          "internalType": "address payable",
          "name": "recipientToken",
          "type": "address"
        }
      ],
      "name": "killSelf",
      "outputs": [],
      "stateMutability": "nonpayable",
      "type": "function"
    }
  ],
  "bytecode": "0x60806040523480156200001157600080fd5b50604051620022d9380380620022d98339818101604052810190620000379190620001f5565b620000576200004b6200011260201b60201c565b6200011a60201b60201c565b600073ffffffffffffffffffffffffffffffffffffffff168173ffffffffffffffffffffffffffffffffffffffff161415620000ca576040517f08c379a0000000000000000000000000000000000000000000000000000000008152600401620000c19062000248565b60405180910390fd5b80600160006101000a81548173ffffffffffffffffffffffffffffffffffffffff021916908373ffffffffffffffffffffffffffffffffffffffff160217905550506200032c565b600033905090565b60008060009054906101000a900473ffffffffffffffffffffffffffffffffffffffff169050816000806101000a81548173ffffffffffffffffffffffffffffffffffffffff021916908373ffffffffffffffffffffffffffffffffffffffff1602179055508173ffffffffffffffffffffffffffffffffffffffff168173ffffffffffffffffffffffffffffffffffffffff167f8be0079c531659141344cd1fd0a4f28419497f9722a3daafe3b4186f6b6457e060405160405180910390a35050565b600081519050620001ef8162000312565b92915050565b6000602082840312156200020857600080fd5b60006200021884828501620001de565b91505092915050565b600062000230602e836200026a565b91506200023d82620002c3565b604082019050919050565b60006020820190508181036000830152620002638162000221565b9050919050565b600082825260208201905092915050565b60006200028882620002a3565b9050919050565b60006200029c826200027b565b9050919050565b600073ffffffffffffffffffffffffffffffffffffffff82169050919050565b7f436f6d6d756e697479526577617264734441543a20746f6b656e20697320746860008201527f65207a65726f2061646472657373000000000000000000000000000000000000602082015250565b6200031d816200028f565b81146200032957600080fd5b50565b611f9d806200033c6000396000f3fe608060405234801561001057600080fd5b506004361061009e5760003560e01c80638da5cb5b116100665780638da5cb5b1461011d578063a047b4191461013b578063b61fc2711461016c578063f2fde38b14610188578063fc0c546a146101a45761009e565b80630c0254bf146100a35780630d59655b146100bf578063379607f5146100db5780633a507d7d146100f7578063715018a614610113575b600080fd5b6100bd60048036038101906100b891906112fd565b6101c2565b005b6100d960048036038101906100d491906112fd565b61024c565b005b6100f560048036038101906100f091906113a3565b6104e8565b005b610111600480360381019061010c91906112d4565b6104f5565b005b61011b610686565b005b61012561070e565b6040516101329190611601565b60405180910390f35b610155600480360381019061015091906112ab565b610737565b60405161016392919061161c565b60405180910390f35b61018660048036038101906101819190611339565b61077b565b005b6101a2600480360381019061019d91906112ab565b6108c4565b005b6101ac6109bc565b6040516101b99190611645565b60405180910390f35b6101ca6109e2565b73ffffffffffffffffffffffffffffffffffffffff166101e861070e565b73ffffffffffffffffffffffffffffffffffffffff161461023e576040517f08c379a000000000000000000000000000000000000000000000000000000000815260040161023590611742565b60405180910390fd5b61024882826109ea565b5050565b6102546109e2565b73ffffffffffffffffffffffffffffffffffffffff1661027261070e565b73ffffffffffffffffffffffffffffffffffffffff16146102c8576040517f08c379a00000000000000000000000000000000000000000000000000000000081526004016102bf90611742565b60405180910390fd5b600073ffffffffffffffffffffffffffffffffffffffff168273ffffffffffffffffffffffffffffffffffffffff161415610338576040517f08c379a000000000000000000000000000000000000000000000000000000000815260040161032f90611722565b60405180910390fd5b6000811161037b576040517f08c379a0000000000000000000000000000000000000000000000000000000008152600401610372906117a2565b60405180910390fd5b6000600260008473ffffffffffffffffffffffffffffffffffffffff1673ffffffffffffffffffffffffffffffffffffffff1681526020019081526020016000209050600073ffffffffffffffffffffffffffffffffffffffff168160000160009054906101000a900473ffffffffffffffffffffffffffffffffffffffff1673ffffffffffffffffffffffffffffffffffffffff1614610424578181600101819055506104e3565b60405180604001604052808473ffffffffffffffffffffffffffffffffffffffff16815260200183815250600260008573ffffffffffffffffffffffffffffffffffffffff1673ffffffffffffffffffffffffffffffffffffffff16815260200190815260200160002060008201518160000160006101000a81548173ffffffffffffffffffffffffffffffffffffffff021916908373ffffffffffffffffffffffffffffffffffffffff160217905550602082015181600101559050505b505050565b6104f233826109ea565b50565b6104fd6109e2565b73ffffffffffffffffffffffffffffffffffffffff1661051b61070e565b73ffffffffffffffffffffffffffffffffffffffff1614610571576040517f08c379a000000000000000000000000000000000000000000000000000000000815260040161056890611742565b60405180910390fd5b6000600160009054906101000a900473ffffffffffffffffffffffffffffffffffffffff1673ffffffffffffffffffffffffffffffffffffffff166370a08231306040518263ffffffff1660e01b81526004016105ce9190611601565b60206040518083038186803b1580156105e657600080fd5b505afa1580156105fa573d6000803e3d6000fd5b505050506040513d601f19601f8201168201806040525081019061061e91906113cc565b905061066d8282600160009054906101000a900473ffffffffffffffffffffffffffffffffffffffff1673ffffffffffffffffffffffffffffffffffffffff16610bdf9092919063ffffffff16565b8173ffffffffffffffffffffffffffffffffffffffff16ff5b61068e6109e2565b73ffffffffffffffffffffffffffffffffffffffff166106ac61070e565b73ffffffffffffffffffffffffffffffffffffffff1614610702576040517f08c379a00000000000000000000000000000000000000000000000000000000081526004016106f990611742565b60405180910390fd5b61070c6000610c65565b565b60008060009054906101000a900473ffffffffffffffffffffffffffffffffffffffff16905090565b60026020528060005260406000206000915090508060000160009054906101000a900473ffffffffffffffffffffffffffffffffffffffff16908060010154905082565b6107836109e2565b73ffffffffffffffffffffffffffffffffffffffff166107a161070e565b73ffffffffffffffffffffffffffffffffffffffff16146107f7576040517f08c379a00000000000000000000000000000000000000000000000000000000081526004016107ee90611742565b60405180910390fd5b600081511161083b576040517f08c379a000000000000000000000000000000000000000000000000000000000815260040161083290611702565b60405180910390fd5b60005b81518110156108c0576000828281518110610882577f4e487b7100000000000000000000000000000000000000000000000000000000600052603260045260246000fd5b602002602001015190506000816020015111156108ac576108ab81600001518260200151610d29565b5b5080806108b890611b7c565b91505061083e565b5050565b6108cc6109e2565b73ffffffffffffffffffffffffffffffffffffffff166108ea61070e565b73ffffffffffffffffffffffffffffffffffffffff1614610940576040517f08c379a000000000000000000000000000000000000000000000000000000000815260040161093790611742565b60405180910390fd5b600073ffffffffffffffffffffffffffffffffffffffff168173ffffffffffffffffffffffffffffffffffffffff1614156109b0576040517f08c379a00000000000000000000000000000000000000000000000000000000081526004016109a7906116a2565b60405180910390fd5b6109b981610c65565b50565b600160009054906101000a900473ffffffffffffffffffffffffffffffffffffffff1681565b600033905090565b600073ffffffffffffffffffffffffffffffffffffffff168273ffffffffffffffffffffffffffffffffffffffff161415610a5a576040517f08c379a0000000000000000000000000000000000000000000000000000000008152600401610a51906116c2565b60405180910390fd5b6000600260008473ffffffffffffffffffffffffffffffffffffffff1673ffffffffffffffffffffffffffffffffffffffff168152602001908152602001600020905060008211610ae0576040517f08c379a0000000000000000000000000000000000000000000000000000000008152600401610ad7906117a2565b60405180910390fd5b6000816001015411610b27576040517f08c379a0000000000000000000000000000000000000000000000000000000008152600401610b1e906117a2565b60405180910390fd5b8060010154821115610b6e576040517f08c379a0000000000000000000000000000000000000000000000000000000008152600401610b6590611682565b60405180910390fd5b610bbb8383600160009054906101000a900473ffffffffffffffffffffffffffffffffffffffff1673ffffffffffffffffffffffffffffffffffffffff16610bdf9092919063ffffffff16565b610bd2828260010154610ec790919063ffffffff16565b8160010181905550505050565b610c608363a9059cbb60e01b8484604051602401610bfe92919061161c565b604051602081830303815290604052907bffffffffffffffffffffffffffffffffffffffffffffffffffffffff19166020820180517bffffffffffffffffffffffffffffffffffffffffffffffffffffffff8381831617835250505050610edd565b505050565b60008060009054906101000a900473ffffffffffffffffffffffffffffffffffffffff169050816000806101000a81548173ffffffffffffffffffffffffffffffffffffffff021916908373ffffffffffffffffffffffffffffffffffffffff1602179055508173ffffffffffffffffffffffffffffffffffffffff168173ffffffffffffffffffffffffffffffffffffffff167f8be0079c531659141344cd1fd0a4f28419497f9722a3daafe3b4186f6b6457e060405160405180910390a35050565b6012600a610d3791906118ee565b81610d429190611a0c565b90506000600260008473ffffffffffffffffffffffffffffffffffffffff1673ffffffffffffffffffffffffffffffffffffffff1681526020019081526020016000209050600073ffffffffffffffffffffffffffffffffffffffff168160000160009054906101000a900473ffffffffffffffffffffffffffffffffffffffff1673ffffffffffffffffffffffffffffffffffffffff1614610e0357610df6828260010154610fa490919063ffffffff16565b8160010181905550610ec2565b60405180604001604052808473ffffffffffffffffffffffffffffffffffffffff16815260200183815250600260008573ffffffffffffffffffffffffffffffffffffffff1673ffffffffffffffffffffffffffffffffffffffff16815260200190815260200160002060008201518160000160006101000a81548173ffffffffffffffffffffffffffffffffffffffff021916908373ffffffffffffffffffffffffffffffffffffffff160217905550602082015181600101559050505b505050565b60008183610ed59190611a66565b905092915050565b6000610f3f826040518060400160405280602081526020017f5361666545524332303a206c6f772d6c6576656c2063616c6c206661696c65648152508573ffffffffffffffffffffffffffffffffffffffff16610fba9092919063ffffffff16565b9050600081511115610f9f5780806020019051810190610f5f919061137a565b610f9e576040517f08c379a0000000000000000000000000000000000000000000000000000000008152600401610f9590611782565b60405180910390fd5b5b505050565b60008183610fb29190611845565b905092915050565b6060610fc98484600085610fd2565b90509392505050565b606082471015611017576040517f08c379a000000000000000000000000000000000000000000000000000000000815260040161100e906116e2565b60405180910390fd5b611020856110e6565b61105f576040517f08c379a000000000000000000000000000000000000000000000000000000000815260040161105690611762565b60405180910390fd5b6000808673ffffffffffffffffffffffffffffffffffffffff16858760405161108891906115ea565b60006040518083038185875af1925050503d80600081146110c5576040519150601f19603f3d011682016040523d82523d6000602084013e6110ca565b606091505b50915091506110da8282866110f9565b92505050949350505050565b600080823b905060008111915050919050565b6060831561110957829050611159565b60008351111561111c5782518084602001fd5b816040517f08c379a00000000000000000000000000000000000000000000000000000000081526004016111509190611660565b60405180910390fd5b9392505050565b600061117361116e846117e7565b6117c2565b9050808382526020820190508285604086028201111561119257600080fd5b60005b858110156111c257816111a88882611235565b845260208401935060408301925050600181019050611195565b5050509392505050565b6000813590506111db81611f0b565b92915050565b6000813590506111f081611f22565b92915050565b600082601f83011261120757600080fd5b8135611217848260208601611160565b91505092915050565b60008151905061122f81611f39565b92915050565b60006040828403121561124757600080fd5b61125160406117c2565b90506000611261848285016111cc565b600083015250602061127584828501611281565b60208301525092915050565b60008135905061129081611f50565b92915050565b6000815190506112a581611f50565b92915050565b6000602082840312156112bd57600080fd5b60006112cb848285016111cc565b91505092915050565b6000602082840312156112e657600080fd5b60006112f4848285016111e1565b91505092915050565b6000806040838503121561131057600080fd5b600061131e858286016111cc565b925050602061132f85828601611281565b9150509250929050565b60006020828403121561134b57600080fd5b600082013567ffffffffffffffff81111561136557600080fd5b611371848285016111f6565b91505092915050565b60006020828403121561138c57600080fd5b600061139a84828501611220565b91505092915050565b6000602082840312156113b557600080fd5b60006113c384828501611281565b91505092915050565b6000602082840312156113de57600080fd5b60006113ec84828501611296565b91505092915050565b6113fe81611a9a565b82525050565b600061140f82611813565b6114198185611829565b9350611429818560208601611b18565b80840191505092915050565b61143e81611af4565b82525050565b600061144f8261181e565b6114598185611834565b9350611469818560208601611b18565b61147281611c23565b840191505092915050565b600061148a603e83611834565b915061149582611c41565b604082019050919050565b60006114ad602683611834565b91506114b882611c90565b604082019050919050565b60006114d0603083611834565b91506114db82611cdf565b604082019050919050565b60006114f3602683611834565b91506114fe82611d2e565b604082019050919050565b6000611516602783611834565b915061152182611d7d565b604082019050919050565b6000611539602f83611834565b915061154482611dcc565b604082019050919050565b600061155c602083611834565b915061156782611e1b565b602082019050919050565b600061157f601d83611834565b915061158a82611e44565b602082019050919050565b60006115a2602a83611834565b91506115ad82611e6d565b604082019050919050565b60006115c5602883611834565b91506115d082611ebc565b604082019050919050565b6115e481611aea565b82525050565b60006115f68284611404565b915081905092915050565b600060208201905061161660008301846113f5565b92915050565b600060408201905061163160008301856113f5565b61163e60208301846115db565b9392505050565b600060208201905061165a6000830184611435565b92915050565b6000602082019050818103600083015261167a8184611444565b905092915050565b6000602082019050818103600083015261169b8161147d565b9050919050565b600060208201905081810360008301526116bb816114a0565b9050919050565b600060208201905081810360008301526116db816114c3565b9050919050565b600060208201905081810360008301526116fb816114e6565b9050919050565b6000602082019050818103600083015261171b81611509565b9050919050565b6000602082019050818103600083015261173b8161152c565b9050919050565b6000602082019050818103600083015261175b8161154f565b9050919050565b6000602082019050818103600083015261177b81611572565b9050919050565b6000602082019050818103600083015261179b81611595565b9050919050565b600060208201905081810360008301526117bb816115b8565b9050919050565b60006117cc6117dd565b90506117d88282611b4b565b919050565b6000604051905090565b600067ffffffffffffffff82111561180257611801611bf4565b5b602082029050602081019050919050565b600081519050919050565b600081519050919050565b600081905092915050565b600082825260208201905092915050565b600061185082611aea565b915061185b83611aea565b9250827fffffffffffffffffffffffffffffffffffffffffffffffffffffffffffffffff038211156118905761188f611bc5565b5b828201905092915050565b6000808291508390505b60018511156118e5578086048111156118c1576118c0611bc5565b5b60018516156118d05780820291505b80810290506118de85611c34565b94506118a5565b94509492505050565b60006118f982611aea565b915061190483611aea565b92506119317fffffffffffffffffffffffffffffffffffffffffffffffffffffffffffffffff8484611939565b905092915050565b6000826119495760019050611a05565b816119575760009050611a05565b816001811461196d5760028114611977576119a6565b6001915050611a05565b60ff84111561198957611988611bc5565b5b8360020a9150848211156119a05761199f611bc5565b5b50611a05565b5060208310610133831016604e8410600b84101617156119db5782820a9050838111156119d6576119d5611bc5565b5b611a05565b6119e8848484600161189b565b925090508184048111156119ff576119fe611bc5565b5b81810290505b9392505050565b6000611a1782611aea565b9150611a2283611aea565b9250817fffffffffffffffffffffffffffffffffffffffffffffffffffffffffffffffff0483118215151615611a5b57611a5a611bc5565b5b828202905092915050565b6000611a7182611aea565b9150611a7c83611aea565b925082821015611a8f57611a8e611bc5565b5b828203905092915050565b6000611aa582611aca565b9050919050565b6000611ab782611aca565b9050919050565b60008115159050919050565b600073ffffffffffffffffffffffffffffffffffffffff82169050919050565b6000819050919050565b6000611aff82611b06565b9050919050565b6000611b1182611aca565b9050919050565b60005b83811015611b36578082015181840152602081019050611b1b565b83811115611b45576000848401525b50505050565b611b5482611c23565b810181811067ffffffffffffffff82111715611b7357611b72611bf4565b5b80604052505050565b6000611b8782611aea565b91507fffffffffffffffffffffffffffffffffffffffffffffffffffffffffffffffff821415611bba57611bb9611bc5565b5b600182019050919050565b7f4e487b7100000000000000000000000000000000000000000000000000000000600052601160045260246000fd5b7f4e487b7100000000000000000000000000000000000000000000000000000000600052604160045260246000fd5b6000601f19601f8301169050919050565b60008160011c9050919050565b7f436f6d6d756e697479526577617264734441543a20746865207769746864726160008201527f77616c20616d6f756e742065786365656473207468652062616c616e63650000602082015250565b7f4f776e61626c653a206e6577206f776e657220697320746865207a65726f206160008201527f6464726573730000000000000000000000000000000000000000000000000000602082015250565b7f436f6d6d756e697479526577617264734441543a20636c61696d2066726f6d2060008201527f746865207a65726f206164647265737300000000000000000000000000000000602082015250565b7f416464726573733a20696e73756666696369656e742062616c616e636520666f60008201527f722063616c6c0000000000000000000000000000000000000000000000000000602082015250565b7f436f6d6d756e697479526577617264734441543a206c6973742061727261792060008201527f6973206e756c6c00000000000000000000000000000000000000000000000000602082015250565b7f436f6d6d756e697479526577617264734441543a2072657761726420746f207460008201527f6865207a65726f20616464726573730000000000000000000000000000000000602082015250565b7f4f776e61626c653a2063616c6c6572206973206e6f7420746865206f776e6572600082015250565b7f416464726573733a2063616c6c20746f206e6f6e2d636f6e7472616374000000600082015250565b7f5361666545524332303a204552433230206f7065726174696f6e20646964206e60008201527f6f74207375636365656400000000000000000000000000000000000000000000602082015250565b7f436f6d6d756e697479526577617264734441543a207468652062616c616e636560008201527f206973207a65726f000000000000000000000000000000000000000000000000602082015250565b611f1481611a9a565b8114611f1f57600080fd5b50565b611f2b81611aac565b8114611f3657600080fd5b50565b611f4281611abe565b8114611f4d57600080fd5b50565b611f5981611aea565b8114611f6457600080fd5b5056fea26469706673582212202366430d7e16fab4c957e8cccd3fc05e0e2a7041a432428705334bed312234be64736f6c63430008040033",
  "immutableReferences": {},
  "source": "// SPDX-License-Identifier: MIT\r\npragma solidity ^0.8.0;\r\n\r\nimport \"@openzeppelin/contracts/access/Ownable.sol\";\r\nimport \"@openzeppelin/contracts/token/ERC20/IERC20.sol\";\r\nimport \"@openzeppelin/contracts/token/ERC20/utils/SafeERC20.sol\";\r\nimport \"@openzeppelin/contracts/utils/math/SafeMath.sol\";\r\n\r\ncontract CommunityRewardsDAT is Ownable {\r\n    using SafeMath for uint256;\r\n    using SafeERC20 for IERC20;\r\n\r\n    IERC20 public token;\r\n\r\n    struct RewardsInfo {\r\n        address rewardsToken;\r\n        uint256 rewardsAmount;\r\n    }\r\n\r\n    struct ReportInfo {\r\n        address token;\r\n        uint256 amount;\r\n    }\r\n\r\n    mapping(address => RewardsInfo) public rewardsInfoByToken;\r\n\r\n    constructor(IERC20 _token) Ownable() {\r\n        require(address(_token) != address(0), \"CommunityRewardsDAT: token is the zero address\");\r\n        token = _token;\r\n    }\r\n\r\n    /**\r\n     * @dev upload account rewardsAmount\r\n     * @param rewardsToken the token of rewards\r\n     * @param rewardsAmount the amount of update\r\n     */\r\n    function updateRewardsAmount(address rewardsToken, uint256 rewardsAmount) public onlyOwner {\r\n        // Not is 0x address\r\n        require(rewardsToken != address(0), 'CommunityRewardsDAT: reward to the zero address');\r\n        // the rewardsAmount must be gt zero\r\n        require(rewardsAmount > 0, 'CommunityRewardsDAT: the balance is zero');\r\n\r\n        RewardsInfo storage info = rewardsInfoByToken[rewardsToken];\r\n        if (info.rewardsToken != address(0)) {\r\n            info.rewardsAmount = rewardsAmount;\r\n        } else {\r\n            rewardsInfoByToken[rewardsToken] = RewardsInfo(rewardsToken, rewardsAmount);\r\n        }\r\n    }\r\n\r\n    /**\r\n     * @dev upload report to update rewards list data\r\n     * @param list upload data array\r\n     */\r\n    function updateRewardsList(ReportInfo[] memory list) public onlyOwner {\r\n        require(list.length > 0, \"CommunityRewardsDAT: list array is null\");\r\n        for (uint i = 0; i < list.length; i++) {\r\n            ReportInfo memory reportInfo = list[i];\r\n            if (reportInfo.amount > 0) {\r\n                _addRewardsTokens(reportInfo.token, reportInfo.amount);\r\n            }\r\n        }\r\n    }\r\n\r\n    /**\r\n     * @dev add rewards list data\r\n     * @param rewardsToken the token of rewards\r\n     * @param rewardsAmount the amount of update\r\n     */\r\n    function _addRewardsTokens(address rewardsToken, uint256 rewardsAmount) internal {\r\n        rewardsAmount = rewardsAmount * (10**uint256(18));\r\n        RewardsInfo storage info = rewardsInfoByToken[rewardsToken];\r\n        if (info.rewardsToken != address(0)) {\r\n            info.rewardsAmount = info.rewardsAmount.add(rewardsAmount);\r\n        } else {\r\n            rewardsInfoByToken[rewardsToken] = RewardsInfo(rewardsToken, rewardsAmount);\r\n        }\r\n    }\r\n\r\n    /**\r\n     * @dev admin claim\r\n     * @param rewardsToken the token of rewards\r\n     * @param claimAmount the amount of claim\r\n     */\r\n    function claimByAdmin(address rewardsToken, uint256 claimAmount) public onlyOwner {\r\n        _claim(rewardsToken, claimAmount);\r\n    }\r\n\r\n    /**\r\n     * @dev self claim\r\n     * @param claimAmount the amount of claim\r\n     */\r\n    function claim(uint256 claimAmount) public {\r\n        _claim(msg.sender, claimAmount);\r\n    }\r\n\r\n    /**\r\n     * @dev common claim function\r\n     * @param rewardsToken the token of rewards\r\n     * @param claimAmount the amount of claim\r\n     */\r\n    function _claim(address rewardsToken, uint256 claimAmount) internal {\r\n        // Not is 0x address\r\n        require(rewardsToken != address(0), 'CommunityRewardsDAT: claim from the zero address');\r\n        RewardsInfo storage info = rewardsInfoByToken[rewardsToken];\r\n        // the claimAmount must be gt zero\r\n        require(claimAmount > 0, 'CommunityRewardsDAT: the balance is zero');\r\n        // the balance must be gt zero\r\n        require(info.rewardsAmount > 0, 'CommunityRewardsDAT: the balance is zero');\r\n        // claimAmount must be lt or equal rewardsAmount\r\n        require(claimAmount <= info.rewardsAmount, 'CommunityRewardsDAT: the withdrawal amount exceeds the balance');\r\n\r\n        token.safeTransfer(rewardsToken, claimAmount);\r\n        info.rewardsAmount = info.rewardsAmount.sub(claimAmount);\r\n    }\r\n\r\n    function killSelf(address payable recipientToken) public onlyOwner {\r\n        uint256 contractBalance = token.balanceOf(address(this));\r\n        token.safeTransfer(recipientToken, contractBalance);\r\n\r\n        selfdestruct(recipientToken);\r\n    }\r\n}\r\n",
  "sourcePath": "D:/Workspaces/DaoswapDex/daoswapdex-heco-testnet/core-rewards-dat/contracts/CommunityRewardsDAT.sol",
  "compiler": {
    "name": "solc",
    "version": "0.8.4+commit.c7e474f2.Emscripten.clang"
  },
  "schemaVersion": "3.4.1",
  "updatedAt": "2021-08-26T10:02:20.928Z",
  "networkType": "ethereum",
  "devdoc": {
    "kind": "dev",
    "methods": {
      "claim(uint256)": {
        "details": "self claim",
        "params": {
          "claimAmount": "the amount of claim"
        }
      },
      "claimByAdmin(address,uint256)": {
        "details": "admin claim",
        "params": {
          "claimAmount": "the amount of claim",
          "rewardsToken": "the token of rewards"
        }
      },
      "owner()": {
        "details": "Returns the address of the current owner."
      },
      "renounceOwnership()": {
        "details": "Leaves the contract without owner. It will not be possible to call `onlyOwner` functions anymore. Can only be called by the current owner. NOTE: Renouncing ownership will leave the contract without an owner, thereby removing any functionality that is only available to the owner."
      },
      "transferOwnership(address)": {
        "details": "Transfers ownership of the contract to a new account (`newOwner`). Can only be called by the current owner."
      },
      "updateRewardsAmount(address,uint256)": {
        "details": "upload account rewardsAmount",
        "params": {
          "rewardsAmount": "the amount of update",
          "rewardsToken": "the token of rewards"
        }
      },
      "updateRewardsList((address,uint256)[])": {
        "details": "upload report to update rewards list data",
        "params": {
          "list": "upload data array"
        }
      }
    },
    "version": 1
  },
  "userdoc": {
    "kind": "user",
    "methods": {},
    "version": 1
  }
}