{
  "contractName": "CommunityRewards",
  "abi": [
    {
      "inputs": [
        {
          "internalType": "contract IERC20",
          "name": "token",
          "type": "address"
        }
      ],
      "stateMutability": "nonpayable",
      "type": "constructor"
    },
    {
      "anonymous": false,
      "inputs": [
        {
          "indexed": true,
          "internalType": "address",
          "name": "previousOwner",
          "type": "address"
        },
        {
          "indexed": true,
          "internalType": "address",
          "name": "newOwner",
          "type": "address"
        }
      ],
      "name": "OwnershipTransferred",
      "type": "event"
    },
    {
      "inputs": [],
      "name": "owner",
      "outputs": [
        {
          "internalType": "address",
          "name": "",
          "type": "address"
        }
      ],
      "stateMutability": "view",
      "type": "function",
      "constant": true
    },
    {
      "inputs": [],
      "name": "renounceOwnership",
      "outputs": [],
      "stateMutability": "nonpayable",
      "type": "function"
    },
    {
      "inputs": [
        {
          "internalType": "address",
          "name": "",
          "type": "address"
        }
      ],
      "name": "rewardsInfoByToken",
      "outputs": [
        {
          "internalType": "address",
          "name": "rewardsToken",
          "type": "address"
        },
        {
          "internalType": "uint256",
          "name": "rewardsAmount",
          "type": "uint256"
        }
      ],
      "stateMutability": "view",
      "type": "function",
      "constant": true
    },
    {
      "inputs": [
        {
          "internalType": "address",
          "name": "newOwner",
          "type": "address"
        }
      ],
      "name": "transferOwnership",
      "outputs": [],
      "stateMutability": "nonpayable",
      "type": "function"
    },
    {
      "inputs": [],
      "name": "token",
      "outputs": [
        {
          "internalType": "contract IERC20",
          "name": "",
          "type": "address"
        }
      ],
      "stateMutability": "view",
      "type": "function",
      "constant": true
    },
    {
      "inputs": [
        {
          "internalType": "address",
          "name": "rewardsToken",
          "type": "address"
        },
        {
          "internalType": "uint256",
          "name": "rewardsAmount",
          "type": "uint256"
        }
      ],
      "name": "updateRewardsAmount",
      "outputs": [],
      "stateMutability": "nonpayable",
      "type": "function"
    },
    {
      "inputs": [
        {
          "components": [
            {
              "internalType": "address",
              "name": "token",
              "type": "address"
            },
            {
              "internalType": "uint256",
              "name": "amount",
              "type": "uint256"
            }
          ],
          "internalType": "struct CommunityRewards.ReportInfo[]",
          "name": "list",
          "type": "tuple[]"
        }
      ],
      "name": "updateRewardsList",
      "outputs": [],
      "stateMutability": "nonpayable",
      "type": "function"
    },
    {
      "inputs": [
        {
          "internalType": "address",
          "name": "rewardsToken",
          "type": "address"
        },
        {
          "internalType": "uint256",
          "name": "claimAmount",
          "type": "uint256"
        }
      ],
      "name": "claimByAdmin",
      "outputs": [],
      "stateMutability": "nonpayable",
      "type": "function"
    },
    {
      "inputs": [
        {
          "internalType": "uint256",
          "name": "claimAmount",
          "type": "uint256"
        }
      ],
      "name": "claim",
      "outputs": [],
      "stateMutability": "nonpayable",
      "type": "function"
    },
    {
      "inputs": [
        {
          "internalType": "address payable",
          "name": "recipientToken",
          "type": "address"
        }
      ],
      "name": "killSelf",
      "outputs": [],
      "stateMutability": "nonpayable",
      "type": "function"
    }
  ],
  "bytecode": "0x60806040523480156200001157600080fd5b50604051620020a4380380620020a48339818101604052810190620000379190620001c1565b600062000049620001a260201b60201c565b9050806000806101000a81548173ffffffffffffffffffffffffffffffffffffffff021916908373ffffffffffffffffffffffffffffffffffffffff1602179055508073ffffffffffffffffffffffffffffffffffffffff16600073ffffffffffffffffffffffffffffffffffffffff167f8be0079c531659141344cd1fd0a4f28419497f9722a3daafe3b4186f6b6457e060405160405180910390a350600073ffffffffffffffffffffffffffffffffffffffff168173ffffffffffffffffffffffffffffffffffffffff1614156200015a576040517f08c379a0000000000000000000000000000000000000000000000000000000008152600401620001519062000255565b60405180910390fd5b80600160006101000a81548173ffffffffffffffffffffffffffffffffffffffff021916908373ffffffffffffffffffffffffffffffffffffffff16021790555050620002ea565b600033905090565b600081519050620001bb81620002d0565b92915050565b600060208284031215620001d457600080fd5b6000620001e484828501620001aa565b91505092915050565b6000620001fc602b8362000277565b91507f436f6d6d756e697479526577617264733a20746f6b656e20697320746865207a60008301527f65726f20616464726573730000000000000000000000000000000000000000006020830152604082019050919050565b600060208201905081810360008301526200027081620001ed565b9050919050565b600082825260208201905092915050565b60006200029582620002b0565b9050919050565b6000620002a98262000288565b9050919050565b600073ffffffffffffffffffffffffffffffffffffffff82169050919050565b620002db816200029c565b8114620002e757600080fd5b50565b611daa80620002fa6000396000f3fe608060405234801561001057600080fd5b506004361061009e5760003560e01c80638da5cb5b116100665780638da5cb5b1461011d578063a047b4191461013b578063b61fc2711461016c578063f2fde38b14610188578063fc0c546a146101a45761009e565b80630c0254bf146100a35780630d59655b146100bf578063379607f5146100db5780633a507d7d146100f7578063715018a614610113575b600080fd5b6100bd60048036038101906100b891906113f8565b6101c2565b005b6100d960048036038101906100d491906113f8565b61024c565b005b6100f560048036038101906100f0919061149e565b6104e8565b005b610111600480360381019061010c91906113cf565b6104f5565b005b61011b610686565b005b6101256107c0565b60405161013291906119ce565b60405180910390f35b610155600480360381019061015091906113a6565b6107e9565b6040516101639291906119e9565b60405180910390f35b61018660048036038101906101819190611434565b61082d565b005b6101a2600480360381019061019d91906113a6565b610949565b005b6101ac610af2565b6040516101b99190611a12565b60405180910390f35b6101ca610b1c565b73ffffffffffffffffffffffffffffffffffffffff166101e86107c0565b73ffffffffffffffffffffffffffffffffffffffff161461023e576040517f08c379a000000000000000000000000000000000000000000000000000000000815260040161023590611b4f565b60405180910390fd5b6102488282610b24565b5050565b610254610b1c565b73ffffffffffffffffffffffffffffffffffffffff166102726107c0565b73ffffffffffffffffffffffffffffffffffffffff16146102c8576040517f08c379a00000000000000000000000000000000000000000000000000000000081526004016102bf90611b4f565b60405180910390fd5b600073ffffffffffffffffffffffffffffffffffffffff168273ffffffffffffffffffffffffffffffffffffffff161415610338576040517f08c379a000000000000000000000000000000000000000000000000000000000815260040161032f90611a4f565b60405180910390fd5b6000811161037b576040517f08c379a000000000000000000000000000000000000000000000000000000000815260040161037290611acf565b60405180910390fd5b6000600260008473ffffffffffffffffffffffffffffffffffffffff1673ffffffffffffffffffffffffffffffffffffffff1681526020019081526020016000209050600073ffffffffffffffffffffffffffffffffffffffff168160000160009054906101000a900473ffffffffffffffffffffffffffffffffffffffff1673ffffffffffffffffffffffffffffffffffffffff1614610424578181600101819055506104e3565b60405180604001604052808473ffffffffffffffffffffffffffffffffffffffff16815260200183815250600260008573ffffffffffffffffffffffffffffffffffffffff1673ffffffffffffffffffffffffffffffffffffffff16815260200190815260200160002060008201518160000160006101000a81548173ffffffffffffffffffffffffffffffffffffffff021916908373ffffffffffffffffffffffffffffffffffffffff160217905550602082015181600101559050505b505050565b6104f23382610b24565b50565b6104fd610b1c565b73ffffffffffffffffffffffffffffffffffffffff1661051b6107c0565b73ffffffffffffffffffffffffffffffffffffffff1614610571576040517f08c379a000000000000000000000000000000000000000000000000000000000815260040161056890611b4f565b60405180910390fd5b6000600160009054906101000a900473ffffffffffffffffffffffffffffffffffffffff1673ffffffffffffffffffffffffffffffffffffffff166370a08231306040518263ffffffff1660e01b81526004016105ce91906119ce565b60206040518083038186803b1580156105e657600080fd5b505afa1580156105fa573d6000803e3d6000fd5b505050506040513d601f19601f8201168201806040525081019061061e91906114c7565b905061066d8282600160009054906101000a900473ffffffffffffffffffffffffffffffffffffffff1673ffffffffffffffffffffffffffffffffffffffff16610d199092919063ffffffff16565b8173ffffffffffffffffffffffffffffffffffffffff16ff5b61068e610b1c565b73ffffffffffffffffffffffffffffffffffffffff166106ac6107c0565b73ffffffffffffffffffffffffffffffffffffffff1614610702576040517f08c379a00000000000000000000000000000000000000000000000000000000081526004016106f990611b4f565b60405180910390fd5b600073ffffffffffffffffffffffffffffffffffffffff1660008054906101000a900473ffffffffffffffffffffffffffffffffffffffff1673ffffffffffffffffffffffffffffffffffffffff167f8be0079c531659141344cd1fd0a4f28419497f9722a3daafe3b4186f6b6457e060405160405180910390a360008060006101000a81548173ffffffffffffffffffffffffffffffffffffffff021916908373ffffffffffffffffffffffffffffffffffffffff160217905550565b60008060009054906101000a900473ffffffffffffffffffffffffffffffffffffffff16905090565b60026020528060005260406000206000915090508060000160009054906101000a900473ffffffffffffffffffffffffffffffffffffffff16908060010154905082565b610835610b1c565b73ffffffffffffffffffffffffffffffffffffffff166108536107c0565b73ffffffffffffffffffffffffffffffffffffffff16146108a9576040517f08c379a00000000000000000000000000000000000000000000000000000000081526004016108a090611b4f565b60405180910390fd5b60008151116108ed576040517f08c379a00000000000000000000000000000000000000000000000000000000081526004016108e490611a6f565b60405180910390fd5b60005b81518110156109455761090161123e565b82828151811061090d57fe5b602002602001015190506000816020015111156109375761093681600001518260200151610d9f565b5b5080806001019150506108f0565b5050565b610951610b1c565b73ffffffffffffffffffffffffffffffffffffffff1661096f6107c0565b73ffffffffffffffffffffffffffffffffffffffff16146109c5576040517f08c379a00000000000000000000000000000000000000000000000000000000081526004016109bc90611b4f565b60405180910390fd5b600073ffffffffffffffffffffffffffffffffffffffff168173ffffffffffffffffffffffffffffffffffffffff161415610a35576040517f08c379a0000000000000000000000000000000000000000000000000000000008152600401610a2c90611a8f565b60405180910390fd5b8073ffffffffffffffffffffffffffffffffffffffff1660008054906101000a900473ffffffffffffffffffffffffffffffffffffffff1673ffffffffffffffffffffffffffffffffffffffff167f8be0079c531659141344cd1fd0a4f28419497f9722a3daafe3b4186f6b6457e060405160405180910390a3806000806101000a81548173ffffffffffffffffffffffffffffffffffffffff021916908373ffffffffffffffffffffffffffffffffffffffff16021790555050565b6000600160009054906101000a900473ffffffffffffffffffffffffffffffffffffffff16905090565b600033905090565b600073ffffffffffffffffffffffffffffffffffffffff168273ffffffffffffffffffffffffffffffffffffffff161415610b94576040517f08c379a0000000000000000000000000000000000000000000000000000000008152600401610b8b90611b2f565b60405180910390fd5b6000600260008473ffffffffffffffffffffffffffffffffffffffff1673ffffffffffffffffffffffffffffffffffffffff168152602001908152602001600020905060008211610c1a576040517f08c379a0000000000000000000000000000000000000000000000000000000008152600401610c1190611acf565b60405180910390fd5b6000816001015411610c61576040517f08c379a0000000000000000000000000000000000000000000000000000000008152600401610c5890611acf565b60405180910390fd5b8060010154821115610ca8576040517f08c379a0000000000000000000000000000000000000000000000000000000008152600401610c9f90611baf565b60405180910390fd5b610cf58383600160009054906101000a900473ffffffffffffffffffffffffffffffffffffffff1673ffffffffffffffffffffffffffffffffffffffff16610d199092919063ffffffff16565b610d0c828260010154610f2b90919063ffffffff16565b8160010181905550505050565b610d9a8363a9059cbb60e01b8484604051602401610d389291906119e9565b604051602081830303815290604052907bffffffffffffffffffffffffffffffffffffffffffffffffffffffff19166020820180517bffffffffffffffffffffffffffffffffffffffffffffffffffffffff8381831617835250505050610f7b565b505050565b6012600a0a810290506000600260008473ffffffffffffffffffffffffffffffffffffffff1673ffffffffffffffffffffffffffffffffffffffff1681526020019081526020016000209050600073ffffffffffffffffffffffffffffffffffffffff168160000160009054906101000a900473ffffffffffffffffffffffffffffffffffffffff1673ffffffffffffffffffffffffffffffffffffffff1614610e6757610e5a82826001015461104290919063ffffffff16565b8160010181905550610f26565b60405180604001604052808473ffffffffffffffffffffffffffffffffffffffff16815260200183815250600260008573ffffffffffffffffffffffffffffffffffffffff1673ffffffffffffffffffffffffffffffffffffffff16815260200190815260200160002060008201518160000160006101000a81548173ffffffffffffffffffffffffffffffffffffffff021916908373ffffffffffffffffffffffffffffffffffffffff160217905550602082015181600101559050505b505050565b600082821115610f70576040517f08c379a0000000000000000000000000000000000000000000000000000000008152600401610f6790611aef565b60405180910390fd5b818303905092915050565b6060610fdd826040518060400160405280602081526020017f5361666545524332303a206c6f772d6c6576656c2063616c6c206661696c65648152508573ffffffffffffffffffffffffffffffffffffffff166110979092919063ffffffff16565b905060008151111561103d5780806020019051810190610ffd9190611475565b61103c576040517f08c379a000000000000000000000000000000000000000000000000000000000815260040161103390611b8f565b60405180910390fd5b5b505050565b60008082840190508381101561108d576040517f08c379a000000000000000000000000000000000000000000000000000000000815260040161108490611aaf565b60405180910390fd5b8091505092915050565b60606110a684846000856110af565b90509392505050565b6060824710156110f4576040517f08c379a00000000000000000000000000000000000000000000000000000000081526004016110eb90611b0f565b60405180910390fd5b6110fd856111c4565b61113c576040517f08c379a000000000000000000000000000000000000000000000000000000000815260040161113390611b6f565b60405180910390fd5b600060608673ffffffffffffffffffffffffffffffffffffffff16858760405161116691906119b7565b60006040518083038185875af1925050503d80600081146111a3576040519150601f19603f3d011682016040523d82523d6000602084013e6111a8565b606091505b50915091506111b88282866111d7565b92505050949350505050565b600080823b905060008111915050919050565b606083156111e757829050611237565b6000835111156111fa5782518084602001fd5b816040517f08c379a000000000000000000000000000000000000000000000000000000000815260040161122e9190611a2d565b60405180910390fd5b9392505050565b6040518060400160405280600073ffffffffffffffffffffffffffffffffffffffff168152602001600081525090565b60008135905061127d81611d18565b92915050565b60008135905061129281611d2f565b92915050565b600082601f8301126112a957600080fd5b81356112bc6112b782611bfc565b611bcf565b915081818352602084019350602081019050838560408402820111156112e157600080fd5b60005b8381101561131157816112f78882611330565b8452602084019350604083019250506001810190506112e4565b5050505092915050565b60008151905061132a81611d46565b92915050565b60006040828403121561134257600080fd5b61134c6040611bcf565b9050600061135c8482850161126e565b60008301525060206113708482850161137c565b60208301525092915050565b60008135905061138b81611d5d565b92915050565b6000815190506113a081611d5d565b92915050565b6000602082840312156113b857600080fd5b60006113c68482850161126e565b91505092915050565b6000602082840312156113e157600080fd5b60006113ef84828501611283565b91505092915050565b6000806040838503121561140b57600080fd5b60006114198582860161126e565b925050602061142a8582860161137c565b9150509250929050565b60006020828403121561144657600080fd5b600082013567ffffffffffffffff81111561146057600080fd5b61146c84828501611298565b91505092915050565b60006020828403121561148757600080fd5b60006114958482850161131b565b91505092915050565b6000602082840312156114b057600080fd5b60006114be8482850161137c565b91505092915050565b6000602082840312156114d957600080fd5b60006114e784828501611391565b91505092915050565b6114f981611c56565b82525050565b600061150a82611c24565b6115148185611c3a565b9350611524818560208601611cd4565b80840191505092915050565b61153981611cb0565b82525050565b600061154a82611c2f565b6115548185611c45565b9350611564818560208601611cd4565b61156d81611d07565b840191505092915050565b6000611585602c83611c45565b91507f436f6d6d756e697479526577617264733a2072657761726420746f207468652060008301527f7a65726f206164647265737300000000000000000000000000000000000000006020830152604082019050919050565b60006115eb602483611c45565b91507f436f6d6d756e697479526577617264733a206c6973742061727261792069732060008301527f6e756c6c000000000000000000000000000000000000000000000000000000006020830152604082019050919050565b6000611651602683611c45565b91507f4f776e61626c653a206e6577206f776e657220697320746865207a65726f206160008301527f64647265737300000000000000000000000000000000000000000000000000006020830152604082019050919050565b60006116b7601b83611c45565b91507f536166654d6174683a206164646974696f6e206f766572666c6f7700000000006000830152602082019050919050565b60006116f7602583611c45565b91507f436f6d6d756e697479526577617264733a207468652062616c616e636520697360008301527f207a65726f0000000000000000000000000000000000000000000000000000006020830152604082019050919050565b600061175d601e83611c45565b91507f536166654d6174683a207375627472616374696f6e206f766572666c6f7700006000830152602082019050919050565b600061179d602683611c45565b91507f416464726573733a20696e73756666696369656e742062616c616e636520666f60008301527f722063616c6c00000000000000000000000000000000000000000000000000006020830152604082019050919050565b6000611803602d83611c45565b91507f436f6d6d756e697479526577617264733a20636c61696d2066726f6d2074686560008301527f207a65726f2061646472657373000000000000000000000000000000000000006020830152604082019050919050565b6000611869602083611c45565b91507f4f776e61626c653a2063616c6c6572206973206e6f7420746865206f776e65726000830152602082019050919050565b60006118a9601d83611c45565b91507f416464726573733a2063616c6c20746f206e6f6e2d636f6e74726163740000006000830152602082019050919050565b60006118e9602a83611c45565b91507f5361666545524332303a204552433230206f7065726174696f6e20646964206e60008301527f6f742073756363656564000000000000000000000000000000000000000000006020830152604082019050919050565b600061194f603b83611c45565b91507f436f6d6d756e697479526577617264733a20746865207769746864726177616c60008301527f20616d6f756e742065786365656473207468652062616c616e636500000000006020830152604082019050919050565b6119b181611ca6565b82525050565b60006119c382846114ff565b915081905092915050565b60006020820190506119e360008301846114f0565b92915050565b60006040820190506119fe60008301856114f0565b611a0b60208301846119a8565b9392505050565b6000602082019050611a276000830184611530565b92915050565b60006020820190508181036000830152611a47818461153f565b905092915050565b60006020820190508181036000830152611a6881611578565b9050919050565b60006020820190508181036000830152611a88816115de565b9050919050565b60006020820190508181036000830152611aa881611644565b9050919050565b60006020820190508181036000830152611ac8816116aa565b9050919050565b60006020820190508181036000830152611ae8816116ea565b9050919050565b60006020820190508181036000830152611b0881611750565b9050919050565b60006020820190508181036000830152611b2881611790565b9050919050565b60006020820190508181036000830152611b48816117f6565b9050919050565b60006020820190508181036000830152611b688161185c565b9050919050565b60006020820190508181036000830152611b888161189c565b9050919050565b60006020820190508181036000830152611ba8816118dc565b9050919050565b60006020820190508181036000830152611bc881611942565b9050919050565b6000604051905081810181811067ffffffffffffffff82111715611bf257600080fd5b8060405250919050565b600067ffffffffffffffff821115611c1357600080fd5b602082029050602081019050919050565b600081519050919050565b600081519050919050565b600081905092915050565b600082825260208201905092915050565b6000611c6182611c86565b9050919050565b6000611c7382611c86565b9050919050565b60008115159050919050565b600073ffffffffffffffffffffffffffffffffffffffff82169050919050565b6000819050919050565b6000611cbb82611cc2565b9050919050565b6000611ccd82611c86565b9050919050565b60005b83811015611cf2578082015181840152602081019050611cd7565b83811115611d01576000848401525b50505050565b6000601f19601f8301169050919050565b611d2181611c56565b8114611d2c57600080fd5b50565b611d3881611c68565b8114611d4357600080fd5b50565b611d4f81611c7a565b8114611d5a57600080fd5b50565b611d6681611ca6565b8114611d7157600080fd5b5056fea2646970667358221220c12635247d49928cad4addc6a2c5e9a9d7a736c3bbb5ab02fa45bd9e041b9bea64736f6c634300060c0033",
  "immutableReferences": {},
  "source": "// SPDX-License-Identifier: MIT\r\n\r\npragma solidity >=0.6.12 < 0.7.5;\r\npragma experimental ABIEncoderV2;\r\n\r\nimport \"@openzeppelin/contracts/access/Ownable.sol\";\r\nimport \"@openzeppelin/contracts/token/ERC20/IERC20.sol\";\r\nimport \"@openzeppelin/contracts/token/ERC20/SafeERC20.sol\";\r\nimport \"@openzeppelin/contracts/math/SafeMath.sol\";\r\n\r\ncontract CommunityRewards is Ownable {\r\n    using SafeMath for uint256;\r\n    using SafeERC20 for IERC20;\r\n\r\n    IERC20 private _token;\r\n\r\n    struct RewardsInfo {\r\n        address rewardsToken;\r\n        uint256 rewardsAmount;\r\n    }\r\n\r\n    struct ReportInfo {\r\n        address token;\r\n        uint256 amount;\r\n    }\r\n\r\n    mapping(address => RewardsInfo) public rewardsInfoByToken;\r\n\r\n    constructor(IERC20 token) Ownable() public {\r\n        require(address(token) != address(0), \"CommunityRewards: token is the zero address\");\r\n        _token = token;\r\n    }\r\n\r\n    function token() public view returns (IERC20) {\r\n        return _token;\r\n    }\r\n\r\n    /**\r\n     * @dev upload account rewardsAmount\r\n     * @param rewardsToken the token of rewards\r\n     * @param rewardsAmount the amount of update\r\n     */\r\n    function updateRewardsAmount(address rewardsToken, uint256 rewardsAmount) public onlyOwner {\r\n        // Not is 0x address\r\n        require(rewardsToken != address(0), 'CommunityRewards: reward to the zero address');\r\n        // the rewardsAmount must be gt zero\r\n        require(rewardsAmount > 0, 'CommunityRewards: the balance is zero');\r\n\r\n        RewardsInfo storage info = rewardsInfoByToken[rewardsToken];\r\n        if (info.rewardsToken != address(0)) {\r\n            info.rewardsAmount = rewardsAmount;\r\n        } else {\r\n            rewardsInfoByToken[rewardsToken] = RewardsInfo(rewardsToken, rewardsAmount);\r\n        }\r\n    }\r\n\r\n    /**\r\n     * @dev upload report to update rewards list data\r\n     * @param list upload data array\r\n     */\r\n    function updateRewardsList(ReportInfo[] memory list) public onlyOwner {\r\n        require(list.length > 0, \"CommunityRewards: list array is null\");\r\n        for (uint i = 0; i < list.length; i++) {\r\n            ReportInfo memory reportInfo = list[i];\r\n            if (reportInfo.amount > 0) {\r\n                _addRewardsTokens(reportInfo.token, reportInfo.amount);\r\n            }\r\n        }\r\n    }\r\n\r\n    /**\r\n     * @dev add rewards list data\r\n     * @param rewardsToken the token of rewards\r\n     * @param rewardsAmount the amount of update\r\n     */\r\n    function _addRewardsTokens(address rewardsToken, uint256 rewardsAmount) internal {\r\n        rewardsAmount = rewardsAmount * (10**uint256(18));\r\n        RewardsInfo storage info = rewardsInfoByToken[rewardsToken];\r\n        if (info.rewardsToken != address(0)) {\r\n            info.rewardsAmount = info.rewardsAmount.add(rewardsAmount);\r\n        } else {\r\n            rewardsInfoByToken[rewardsToken] = RewardsInfo(rewardsToken, rewardsAmount);\r\n        }\r\n    }\r\n\r\n    /**\r\n     * @dev admin claim\r\n     * @param rewardsToken the token of rewards\r\n     * @param claimAmount the amount of claim\r\n     */\r\n    function claimByAdmin(address rewardsToken, uint256 claimAmount) public onlyOwner {\r\n        _claim(rewardsToken, claimAmount);\r\n    }\r\n\r\n    /**\r\n     * @dev self claim\r\n     * @param claimAmount the amount of claim\r\n     */\r\n    function claim(uint256 claimAmount) public {\r\n        _claim(msg.sender, claimAmount);\r\n    }\r\n\r\n    /**\r\n     * @dev common claim function\r\n     * @param rewardsToken the token of rewards\r\n     * @param claimAmount the amount of claim\r\n     */\r\n    function _claim(address rewardsToken, uint256 claimAmount) internal {\r\n        // Not is 0x address\r\n        require(rewardsToken != address(0), 'CommunityRewards: claim from the zero address');\r\n        RewardsInfo storage info = rewardsInfoByToken[rewardsToken];\r\n        // the claimAmount must be gt zero\r\n        require(claimAmount > 0, 'CommunityRewards: the balance is zero');\r\n        // the balance must be gt zero\r\n        require(info.rewardsAmount > 0, 'CommunityRewards: the balance is zero');\r\n        // claimAmount must be lt or equal rewardsAmount\r\n        require(claimAmount <= info.rewardsAmount, 'CommunityRewards: the withdrawal amount exceeds the balance');\r\n\r\n        _token.safeTransfer(rewardsToken, claimAmount);\r\n        info.rewardsAmount = info.rewardsAmount.sub(claimAmount);\r\n    }\r\n\r\n    function killSelf(address payable recipientToken) public onlyOwner {\r\n        uint256 contractBalance = _token.balanceOf(address(this));\r\n        _token.safeTransfer(recipientToken, contractBalance);\r\n\r\n        selfdestruct(recipientToken);\r\n    }\r\n}\r\n",
  "sourcePath": "D:/Workspaces/DaoswapDex/daoswapdex-heco-testnet/core-community-rewards/contracts/CommunityRewards.sol",
  "compiler": {
    "name": "solc",
    "version": "0.6.12+commit.27d51765.Emscripten.clang"
  },
  "schemaVersion": "3.4.1",
  "updatedAt": "2021-07-25T06:46:38.687Z",
  "networkType": "ethereum",
  "devdoc": {
    "kind": "dev",
    "methods": {
      "claim(uint256)": {
        "details": "self claim",
        "params": {
          "claimAmount": "the amount of claim"
        }
      },
      "claimByAdmin(address,uint256)": {
        "details": "admin claim",
        "params": {
          "claimAmount": "the amount of claim",
          "rewardsToken": "the token of rewards"
        }
      },
      "owner()": {
        "details": "Returns the address of the current owner."
      },
      "renounceOwnership()": {
        "details": "Leaves the contract without owner. It will not be possible to call `onlyOwner` functions anymore. Can only be called by the current owner. NOTE: Renouncing ownership will leave the contract without an owner, thereby removing any functionality that is only available to the owner."
      },
      "transferOwnership(address)": {
        "details": "Transfers ownership of the contract to a new account (`newOwner`). Can only be called by the current owner."
      },
      "updateRewardsAmount(address,uint256)": {
        "details": "upload account rewardsAmount",
        "params": {
          "rewardsAmount": "the amount of update",
          "rewardsToken": "the token of rewards"
        }
      },
      "updateRewardsList((address,uint256)[])": {
        "details": "upload report to update rewards list data",
        "params": {
          "list": "upload data array"
        }
      }
    },
    "version": 1
  },
  "userdoc": {
    "kind": "user",
    "methods": {},
    "version": 1
  }
}